:020000040001F9
:10800000C04E00204D8501005585010057850100B7
:10801000598501005B8501005D85010000000000BD
:108020000000000000000000000000005F8501006B
:108030006185010000000000638501006585010085
:10804000FD9B010067850100D5A001006785010047
:10805000678501000000000029910100678501008B
:10806000678501006785010067850100678501005C
:10807000678501006785010067850100678501004C
:10808000678501009D9C01006785010067850100EF
:108090005D9D010067850100659D01006785010008
:1080A00067850100678501000000000000000000F6
:1080B00067850100678501000000000000000000E6
:1080C00000000000000000000000000000000000B0
:1080D00000000000000000000000000000000000A0
:1080E0000000000000000000000000000000000090
:1080F0000000000000000000000000000000000080
:10810000000000000000000000000000000000006F
:10811000000000000000000000000000000000005F
:10812000000000000000000000000000000000004F
:10813000000000000000000000000000000000003F
:10814000000000000000000000000000000000002F
:10815000000000000000000000000000000000001F
:10816000000000000000000000000000000000000F
:1081700000000000000000000000000000000000FF
:1081800000000000000000000000000000000000EF
:1081900000000000000000000000000000000000DF
:1081A00000000000000000000000000000000000CF
:1081B00000000000000000000000000000000000BF
:1081C00000000000000000000000000000000000AF
:1081D000000000000000000000000000000000009F
:1081E000000000000000000000000000000000008F
:1081F000000000000000000000000000000000007F
:10820000DFF80CD000F04AFA0048004731E70100DF
:10821000C04E002030B450E8012F93B2C4892344EB
:108220008489A34228BF1B1B0489A34202BFBFF35A
:108230002F8F002007E0C3EA020340E80134002C3E
:10824000E9D14FF001000A6030BC704750E8012FBF
:10825000C2EA024240E801210029F7D1704730B458
:1082600050E8022F1FFAA2F3C488A34202BFBFF353
:108270002F8F00200DE0C48923448489A34228BFA6
:108280001B1BC2EA034340E80234002CE8D14FF044
:1082900001000A6030BC704750E8022FC2EA224257
:1082A00040E802210029F7D17047034653E8022F26
:1082B000D988B2EB324F4FF0000017BF92B241EABB
:1082C000014142EA014104E05A68B2EB324F08BF73
:1082D000012043E80212002AE8D1704730B4044676
:1082E00054E8000F0D4644E80053002BF8D1156008
:1082F00030BC704730B4044654E8000F40EA010532
:1083000044E80053002BF7D1156030BC704730B4FF
:10831000044654E8000F00EA010544E80053002B2E
:10832000F7D1156030BC704730B4044654E8000FF4
:1083300080EA010544E80053002BF7D1156030BCFA
:10834000704730B4044654E8000F00EB010544E8E0
:108350000053002BF7D1156030BC704730B4044691
:1083600054E8000FA0EB010544E80053002BF7D1BF
:10837000156030BC7047000030B4044654E8000F6C
:108380000D4644E80053002BF8D1156030BC70470F
:1083900030B4044654E8000F40EA010544E80053B5
:1083A000002BF7D1156030BC704730B4044654E858
:1083B000000F00EA010544E80053002BF7D11560D7
:1083C00030BC704730B4044654E8000F80EA010521
:1083D00044E80053002BF7D1156030BC704730B42F
:1083E000044654E8000F00EB010544E80053002B5D
:1083F000F7D1156030BC704730B4044654E8000F24
:10840000A0EB010544E80053002BF7D1156030BC08
:108410007047000030B4044654E8000F0D4644E8AD
:108420000053002BF8D1156030BC704730B40446BF
:1084300054E8000F40EA010544E80053002BF7D14F
:10844000156030BC704730B4044654E8000F00EAB1
:10845000010544E80053002BF7D1156030BC70478C
:1084600030B4044654E8000F80EA010544E80053A4
:10847000002BF7D1156030BC704730B4044654E887
:10848000000F00EB010544E80053002BF7D1156005
:1084900030BC704730B4044654E8000FA0EB01052F
:1084A00044E80053002BF7D1156030BC7047000042
:1084B00030B4044654E8000F0D4644E80053002B46
:1084C000F8D1156030BC704730B4044654E8000F52
:1084D00040EA010544E80053002BF7D1156030BC99
:1084E000704730B4044654E8000F00EA010544E840
:1084F0000053002BF7D1156030BC704730B40446F0
:1085000054E8000F80EA010544E80053002BF7D13E
:10851000156030BC704730B4044654E8000F00EBDF
:10852000010544E80053002BF7D1156030BC7047BB
:1085300030B4044654E8000FA0EB010544E80053B2
:10854000002BF7D1156030BC70470000064880470B
:1085500006480047FEE7FEE7FEE7FEE7FEE7FEE728
:10856000FEE7FEE7FEE7FEE7719E010001820100E3
:108570002DE9F05F0546002092469B468846064658
:10858000814640241BE0284641464746224600F0EB
:1085900075F853465A46C01A914110D311461846F1
:1085A000224600F05CF82D1A67EB01084F46224680
:1085B0000120002100F053F817EB00094E41201E66
:1085C000A4F10104DFDC484631462A464346BDE8B3
:1085D000F09F000000487047183A020040EA01038B
:1085E0009B0703D009E008C9121F08C0042AFAD269
:1085F00003E011F8013B00F8013B521EF9D270472D
:10860000D2B201E000F8012B491EFBD270470022D4
:10861000F6E710B513460A4604461946FFF7F0FF81
:10862000204610BD421C10F8011B0029FBD1801A06
:10863000704730B504460020034600E05B1C9342BF
:1086400003D2E05CCD5C401BF8D030BD034611F88E
:10865000012B00F8012B002AF9D118467047202A77
:1086600004DB203A00FA02F1002070479140C2F189
:10867000200320FA03F3194390407047202A04DBBB
:10868000203A21FA02F00021704721FA02F3D0408B
:10869000C2F120029140084319467047064C074D2D
:1086A00006E0E06840F0010394E8070098471034C2
:1086B000AC42F6D3FFF7A8FDD4410200F44102001A
:1086C00070B58C1810F8015B15F0070301D110F894
:1086D000013B2A1106D110F8012B03E010F8016BC1
:1086E00001F8016B5B1EF9D12B0705D40023521E44
:1086F0000DD401F8013BFAE710F8013BCB1A921CAC
:1087000003E013F8015B01F8015B521EF9D5A142A9
:10871000D8D3002070BD10B505F09EF910BD000043
:108720002DE9F04106460F4613210B48008876DFFD
:10873000044600BF254625B100BF284602F0BEF81A
:1087400000BF00BF2CB905A00AF0D8FA0120BDE88F
:10875000F0810020FBE70000902100202B49533AD4
:10876000300D0A007CB505460E46002000900190B1
:108770000DF1010005F0EFFB07A00AF0BFFA0DF1C3
:10878000010002F0ABFB044620460AF0B7FA04A051
:108790000AF0B4FA01207CBD2B434B3A00000000E4
:1087A0000D0A000070B504460D4602A00AF0A6FAB4
:1087B000012070BD2B434C3A300D0A0002460120C7
:1087C00070470246012070472DE9F04790B081467E
:1087D0008A4600200F90342102A8FFF718FF0027D7
:1087E0006A465146484605F071FB07461FB900200E
:1087F00010B0BDE8F087BDF80000012801D00020CE
:10880000F6E7384601F066FDC5B2012D04DD37A05C
:108810000AF074FA0020EBE7012D52D135480078B8
:1088200088BB052202213448008888DF0446002CDA
:108830005AD14FF064084FF47A7118FB01F006F03A
:10884000A3FA00BF0FA92C4800888EDF0446002C35
:108850004AD101202749087028A00AF04FFA9DF854
:108860003C004042C6B22D208DF8080001AA3146D6
:10887000501D00F075FD02A80AF040FA21A00AF090
:108880003DFA0120B4E7FFE70FA91B4800888EDFFF
:1088900004464CBB19A00AF031FA9DF83C00404256
:1088A000C6B22D208DF8080001AA3146501D00F0F7
:1088B00057FD02A80AF022FA12A00AF01FFA0120BE
:1088C00096E765B90C48008889DF044664B9002042
:1088D000084908700CA00AF011FA012088E703A0EB
:1088E0000AF00CFA002083E7002081E74552524F3E
:1088F000520D0A00AC210020902100202B43493A60
:10890000000000000D0A00004F4B0D0A000000009F
:1089100070B58EB005460E46A024342101A8FFF79D
:1089200076FE1D48002181818089202817DB1A48A6
:108930008089B0F5804F12DC18A00AF0DFF91648E4
:1089400081896A4601A800F00BFD01A80AF0D6F95A
:1089500014A00AF0D3F914A00AF0D0F91AE00E48D6
:1089600080894FF6FF71884211D10CA00AF0C6F938
:108970006A46214601A800F0F3FC01A80AF0BEF9FE
:1089800008A00AF0BBF908A00AF0B8F902E000203C
:108990000EB070BD0120FBE7282E00202B43433A88
:1089A000000000000D0A00004F4B0D0A00000000FF
:1089B00002460120704702460120704770B590B012
:1089C00005460E46342103A8FFF721FE0020019042
:1089D000029018211F48FFF71AFE1E481538407DE7
:1089E00000280FDD1B481538407D16280ADA194883
:1089F000401C0AF083F918A00AF080F917A00AF0C9
:108A00007DF925E013481538407DFF281DD101A8C8
:108A100005F0A1FA0A2213A103A8FFF7DFFD2D201C
:108A20008DF8160002A802F003FA04461CB1D4F82F
:108A30000210CDF8171003A80AF060F906A00AF09A
:108A40005DF906A00AF05AF902E0002010B070BDEE
:108A50000120FBE73D2E00200D0A00004F4B0D0AC0
:108A600000000000426C652D446576696365000076
:108A7000024601207047024601207047024601204D
:108A800070470246012070470246012070470246A7
:108A90000120704770B504460D460E48007820B995
:108AA0000DA00AF02BF9012070BD0A4800780128BA
:108AB00004D10BA00AF022F90120F5E7054800785F
:108AC000022804D108A00AF019F90120ECE70020DF
:108AD000EAE70000AD2100202B49533A300D0A008F
:108AE0002B49533A310D0A002B49533A320D0A00F3
:108AF00002460120704702460120704702460120CD
:108B0000704702460120704730B58FB004460D46CD
:108B1000342102A8FFF77BFD344800210160416049
:108B2000816033A00AF0EAF8304800683249884290
:108B300003D132A00AF0E2F82CE02C480068314959
:108B4000884203D130A00AF0D9F823E02748006812
:108B5000B0F51D0F03D12EA00AF0D0F81AE023487B
:108B60000068B0F56B0F03D12BA00AF0C7F811E035
:108B70001E480068B0F1EB7F03D129A00AF0BEF8CF
:108B800008E029A00AF0BAF82BA00AF0B7F80120F3
:108B90000FB030BD154909793031C8B202F096F8EE
:108BA0002C2002F093F8114989793031C8B202F0D3
:108BB0008DF82C2002F08AF80C49097A3031C8B2BD
:108BC00002F084F82C2002F081F80848418901AABB
:108BD00002A800F0C5FB02A80AF090F815A00AF060
:108BE0008DF815A00AF08AF80120D1E7282E002080
:108BF0002B43413A00000000005027003936303046
:108C00002C00000000A04E0031393230302C000022
:108C100033383430302C000035373630302C0000FB
:108C20003131353230302C00393630302C302C3068
:108C30002C312C300D0A00004F4B0D0A00000000B3
:108C40000246012070470000F8B506460F46002591
:108C50006A463946304605F039F905460DB9002017
:108C6000F8BD284601F036FB84B2202C09DBB4F5B0
:108C7000804F06DC0548848105A00AF03FF80120FA
:108C8000EEE705A00AF03AF80020E9E7282E0020D8
:108C90004F4B0D0A000000004552524F520D0A0082
:108CA0000246012070470246002070472DE9F0413E
:108CB00088B006460F4600256A463946304605F01C
:108CC00005F905461DB9002008B0BDE8F081BDF8E2
:108CD0000000012801D00020F6E72846FFF7A2FC9B
:108CE000C4B22846FFF79EFC80464246294601A8AA
:108CF000FFF774FC142C04DD0AA009F0FFFF00202C
:108D0000E2E7224601A90948FFF768FC002207486C
:108D1000401E611C42541538447505A009F0EEFF51
:108D20000120D1E74552524F520D0A003E2E00203D
:108D30004F4B0D0A0000000002460120704702461A
:108D400001207047024601207047000070B50446BC
:108D50000D4602A009F0D2FF012070BD4F4B0D0A55
:108D60000000000070B504460D4602A009F0C6FFE1
:108D7000012070BD4F4B0D0A00000000024601208B
:108D8000704702460120704770B504460D4602A0A8
:108D900009F0B4FF012070BD4F4B0D0A0000000028
:108DA00070B504460D4602A009F0A8FF012070BD71
:108DB0004F4B0D0A00000000F8B506460F4600258F
:108DC0006A463946304605F081F805460DB900205F
:108DD000F8BDBDF8000018B1BDF80000032801DDA2
:108DE0000020F5E7284600F039F90446042C06DC9B
:108DF00005494C8205A009F081FF0120E8E705A0A4
:108E000009F07CFF0020E3E7282E00204F4B0D0ADD
:108E1000000000004552524F520D0A002DE9FF415B
:108E200006460F46002403AA3946304605F04EF8A0
:108E300004461CB9002004B0BDE8F081204605F0CE
:108E400077FA08B90020F6E704F1700001F042FA61
:108E500080B2ADF80A0004F1540001F03BFA80B290
:108E6000ADF8080004F1380001F034FA80B2ADF832
:108E7000060004F11C0001F02DFA80B2ADF80400E8
:108E8000204600F0A3F8054625B90DA009F036FFED
:108E90000020D0E700950C4900980860BDF8040058
:108EA0008880BDF80600C880BDF808000881BDF8BC
:108EB0000A00488105A009F021FF0120BBE700005E
:108EC0004552524F520D0A00282E00204F4B0D0ADA
:108ED0000000000002460120704700BF00F0C2FD04
:108EE00070B504460D4602A009F008FF012070BDD0
:108EF0004F4B0D0A0000000070B50025324890F875
:108F0000080200EB8010304901EB8004084690F81D
:108F10000A02002857D000BFB4F80001B4F80211CB
:108F200088421BDAB4F80201B4F80011401AFB2899
:108F300001DDFB2505E0B4F80201B4F80011401A88
:108F400085B2B4F800110819294600F00FFF98BB4C
:108F5000B4F800012844A4F8000134E00020A4F88B
:108F60000001A4F80201184890F80A0230B116482E
:108F700090F80A02401E144981F80A02124890F83B
:108F80000A02D0B1104890F8080280F001000E49A2
:108F900081F80802084690F8080208B9012000E0AC
:108FA0000020094981F80902084690F8080200EB00
:108FB000801001EB8004AFE705E00020024981F852
:108FC000090281F8080270BDA42E002070B5044685
:108FD0000025042215A12046FFF72BFB08B9154DEB
:108FE00021E0052214A12046FFF723FB08B9144D08
:108FF00019E0052213A12046FFF71BFB10B94FF41F
:109000001D0510E0052211A12046FFF712FB10B943
:109010004FF46B0507E006220EA12046FFF709FB7F
:1090200008B94FF0EB75284670BD00003936303076
:1090300000000000005027003139323030000000BD
:1090400000A04E0033383430300000003537363061
:1090500030000000313135323030000070B5044648
:109060000025012227A12046FFF7E3FA08B90425CD
:1090700045E0012224A12046FFF7DBFA08B90025CC
:109080003DE0032221A12046FFF7D3FA10B96FF08B
:10909000270534E002221EA12046FFF7CAFA10B9C4
:1090A0006FF003052BE002221AA12046FFF7C1FA58
:1090B00010B96FF0070522E0032217A12046FFF741
:1090C000B8FA10B96FF00B0519E0032213A120467E
:1090D000FFF7AFFA10B96FF00F0510E0032210A1EF
:1090E0002046FFF7A6FA10B96FF0130507E0032238
:1090F0000CA12046FFF79DFA08B96FF01D05284620
:1091000070BD000034000000300000002D3430003D
:109110002D3400002D3800002D3132002D31360065
:109120002D3230002D3330002DE9F04F89B04FF053
:109130000008002008904FF480700790012600245A
:1091400013E0079806F0BAFD48B100BF81480068F7
:10915000304020B1079806F0A3FD48EA06087600E3
:109160000798001D80B20790641C082CE9D34FF4C7
:10917000BE7006F0A3FD50B14FF4BE7006F090FD36
:1091800048F0004808AA0121002006F06FFD08F011
:10919000FF0000B3012600241BE006EA0800B0B17E
:1091A00000BF6D4850F82400C0F30420074600BFFC
:1091B000694850F82400C0F301408146204603F07E
:1091C00083FA054615B149463846A84700BF7600E0
:1091D000641C082CE1D308F0004000287ED0002059
:1091E00006900590002505E04FF0FF3004A941F8F6
:1091F00025006D1C002DF7D000BF00200690002434
:109200006FE05648005D0390039820F0C007534874
:109210000057401C002863D004A9384605F0E4FC40
:1092200000285DD003984FEA901A384603F094FA6C
:10923000814603F049FA0290029810B9BAF1030F7F
:109240004BD1BAF1030F11D1394605A80246CB081C
:1092500001F0070112F803C04FF0010E0EFA01FEF3
:109260004CEA0E0C02F803C000BF00BF00BF00BFF5
:109270004FF0A041084600F5E06151F82710C1F316
:10928000014900BF08A9384605F0AEFC8346BBF192
:10929000000F02D0B9F1020F05D0BBF1000F1BD1B6
:1092A000B9F1030F18D1BAF1030F0FD1B9F1020FC1
:1092B00001D1032000E0022001903846019906F018
:1092C00039FC0698401CC0B2069000BF029818B145
:1092D00051463846029A904700BF00E036E000BF92
:1092E000641C042C8DD3069858B3012703AA0121CE
:1092F000002006F0BBFC00250AE003A850F825007A
:1093000008A951F82510884201D0002702E06D1C01
:10931000002DF2D000BF17B10020069010E000250C
:109320000CE003A850F8250008A941F8250005A87D
:1093300050F8250004A941F825006D1C002DF0D03F
:1093400000BF069800287FF458AF00BF09B0BDE801
:10935000F08F000004630040106500407831002069
:10936000FFB5044613460020002200251D7000BFF3
:109370000A25B1FBF5F605FB16150DF8005006465B
:10938000471CF8B26F46F5192E7830362E700A2534
:10939000B1FBF5F10029EBD11870002206E0851A27
:1093A0006D1E1DF80550A554551CEAB28242F6DB2D
:1093B000FFBD70B504460D46207808B1012070BD90
:1093C000FFF7A9F90020FAE770B504460E4600251C
:1093D000207808B1012070BD04F0CEFC05460420C1
:1093E00008490870FC2048700D2088700220C87061
:1093F0000D71280A48710621024800F023FD002063
:10940000E9E70000B030002070B504460D46207832
:1094100008B1012070BD04F01FFD0420234908702D
:10942000FC204870022088700120C8702048006825
:10943000B0F51D0F1CD008DCB0F51D2F0CD01D4958
:10944000084468B10844F8B90EE0B0F56B0F13D0CA
:10945000B0F1EB7F18D113E000201449087117E038
:1094600002201249087113E00320104908710FE02F
:1094700004200E4908710BE005200C49087107E033
:1094800006200A49087103E0FF200849087100BF5F
:1094900000BF06480079FF2801D10120BAE7052165
:1094A000024800F0CFFC0020B4E70000B0300020FC
:1094B000282E002000B0D8FF70B504460D46207855
:1094C00008B1012070BD04F06BFC04200A4908704B
:1094D000FC204870042088700220C8700748807BF8
:1094E00008710648C089000A48710621024800F048
:1094F000A9FC0020E6E70000B0300020282E002064
:109500002DE9F04105460F460026287810B10120CC
:10951000BDE8F08120211E48FFF779F804201C499E
:109520000870FC2048700920887004F05FFC044635
:109530001848407D002812DD1648407D16280EDAB6
:1095400020781349C8700846C07808B90120DFE7C1
:109550000F48C278611C001DFFF740F80FE020465D
:10956000FFF760F80A49C8700846C07808B90120BA
:10957000CEE70748C2782146001DFFF72FF80448C0
:10958000C078061DF1B2024800F05CFC0020BFE785
:10959000B0300020282E0020FEB504460E460025DF
:1095A000207808B10120FEBD0D25062D01DA01202D
:1095B000F9E72A4614A16846FFF710F80420164977
:1095C0000870FC204870F02088700220C8709DF858
:1095D000010004F05DFD104908719DF8030004F0DE
:1095E00057FD0007000E0C4948719DF8050004F076
:1095F0004FFD094949790843074948710621064842
:1096000000F020FC0020CEE756312E302E302D31D8
:109610003830313139000000B03000207CB50446CC
:109620000D46207808B101207CBD002000900190FB
:1096300068466DDF08B10020F6E704200F49087086
:10964000FC204870072088700620C8709DF8010033
:1096500008719DF8020048719DF8030088719DF81B
:109660000400C8719DF8050008729DF80600487254
:109670000A21024800F0E6FB0020D5E7B0300020C8
:1096800070B504460D46207808B1012070BD042055
:1096900008490870FC2048700F2088700120C870AD
:1096A00004F0C6FB034908710521024800F0CAFB1B
:1096B0000020EBE7B030002070B504460D4620785E
:1096C00008B1012070BD042008490870FC204870D2
:1096D000112088700120C87004F0E6FB034908716E
:1096E0000521024800F0AEFB0020EBE7B03000207F
:1096F0000246107808B10120704700BF00BF00BFCC
:1097000000BF00BF00BF00BFBFF34F8F00BF00BF4F
:1097100000BF0A48006800F4E060094B1843001DD0
:10972000064B186000BF00BF00BFBFF34F8F00BFE4
:1097300000BF00BF00BF00BFFDE700000CED00E070
:109740000000FA0570B504460D462078022801D1C4
:10975000022D01DC012070BDA278617862F31F2127
:10976000084608F069F90421024800F06BFB00206C
:10977000F1E70000302200203EB504460D461D4AA8
:1097800007CA8DE807002078012801D1022D01DAEF
:1097900001203EBD607807281BD2DFE800F0041AE4
:1097A000080B0E1216004FF41D20009014E0124812
:1097B000009011E0114800900EE04FF41D00009061
:1097C0000AE04FF46B00009006E04FF0EB70009061
:1097D00002E00020009000BF00BF009808B90120FF
:1097E000D7E7684608F096F90421054800F02AFBFF
:1097F0000020CEE7B83502000050270000A04E0040
:109800003022002038B504460D462078022801D1C8
:10981000032D01DA012038BD0020ADF80200A17847
:10982000607861F31F20ADF80000684608F01AF96F
:109830000421024800F006FB0020ECE73022002063
:1098400030B585B004460D462078401CA84202DCA5
:109850002078142802DD012005B030BD2278611C7B
:109860006846FEF7BBFE684608F016F90421024878
:1098700000F0E8FA0020EFE73022002070B504463F
:109880000D462078012801D1012D01DC012070BD99
:10989000607808F029F90421024800F0D3FA00208A
:1098A000F5E700003022002070B504460D46207810
:1098B000012801D1012D01DC012070BD607808F084
:1098C00049F90421024800F0BDFA0020F5E7000044
:1098D00030220020F8B504460D46002000900126F5
:1098E0002078012802D16078FC2801D00220F8BD40
:1098F000A078694604F0B6FD58B1E81E81B20A4866
:109900009DF8003000EBC3004268E01C904706461B
:1099100001E00220EBE7012E03D10421034800F00F
:1099200091FA3046E3E70000B02100203422002005
:109930002DE9FF410025284E00BF05E0307802A93F
:109940004855761C681CC5B2082DF7DB9DF8080049
:1099500070B99DF8090058B99DF80A0040B99DF802
:109960000B0028B99DF80C0010B99DF80D0080B3CC
:109970009DF80800FF2813D19DF80900FF280FD19A
:109980009DF80A00FF280BD19DF80B00FF2807D196
:109990009DF80C00FF2803D19DF80D00FF2818D07A
:1099A0009DF8000020F0FE008DF800000298CDF830
:1099B0000100BDF80C00ADF8050068466CDF0446F8
:1099C00000BF274627B100BF384600F077FF00BF31
:1099D00000BFBDE8FF810000F810001000F01F027A
:1099E00001219140024A430942F8231070470000C8
:1099F00080E200E000F01F0201219140024A430989
:109A000042F823107047000080E200E000F01F02DF
:109A1000012191404209920002F1E022C2F80011B6
:109A20007047000000F01F0201219140024A4309E3
:109A300042F823107047000000E200E010B5002853
:109A400007DA4A07140E054A00F00F031B1FD4540F
:109A500003E04A07130E024A135410BD18ED00E04C
:109A600000E400E000BF00BF00BFBFF34F8F00BFA6
:109A700000BF00BF0948006800F4E06008490843DF
:109A8000001D0649086000BF00BF00BFBFF34F8F35
:109A900000BF00BF00BF00BF00BFFDE70CED00E04E
:109AA0000000FA051FB551A103C9CDE9020151A17A
:109AB00003C9CDE9000100240AE002A9085D06F00F
:109AC0002DF81DF80400032106F003F8601CC4B251
:109AD000072CF2D3032005F04DF9002405E002A97C
:109AE000085D06F04BF8601CC4B2072CF7D30320C6
:109AF00005F040F99DF8000006F063F8E8B99DF81C
:109B0000010006F05EF8C0B99DF8020006F059F8B1
:109B100098B99DF8030006F054F870B99DF8040058
:109B200006F04FF848B99DF8050006F04AF820B94C
:109B30009DF8060006F045F810B1002004B010BDF5
:109B4000002405E002A9085D06F068F8601CC4B2B4
:109B5000072CF7D3032005F00DF99DF8000006F05F
:109B600030F8E8B19DF8010006F02BF8C0B19DF87F
:109B7000020006F026F898B19DF8030006F021F8DF
:109B800070B19DF8040006F01CF848B19DF805007E
:109B900006F017F820B19DF8060006F012F808B993
:109BA0000020CBE700241DE002A9085D05F0E6FFD8
:109BB000032005F0DFF81DF8040006F002F808B1F4
:109BC0000020BBE702A9085D06F028F8032005F095
:109BD000D1F81DF8040005F0F4FF08B90020ADE746
:109BE000601CC4B2072CDFD30120A7E72B2C2F0C5D
:109BF0000D0F0E002D2A042E1022160010B54FF462
:109C0000807005F093F860B14FF4807005F097F81C
:109C1000012005F09DF801200B494870002002F05A
:109C200067FE4FF4827005F081F858B14FF48270EE
:109C300005F085F8022005F08BF8012002498870B4
:109C400002F056FE10BD00001431002004490978CE
:109C500029B10449097811B10221034A11707047F2
:109C6000A521002098210020A421002010B5084A39
:109C70000021084800F062FE00224FF44031054800
:109C8000006800F0A7FE01200349087010BD000025
:109C90004D9C010000330200A521002010B50020DA
:109CA0000949086000210948C0F84411C0F848116A
:109CB000C0F84C1100200549C1F8000102493C39A7
:109CC000086008F08DFD10BD4011014000100140FA
:109CD00010B500F009FA10BD2DE9F0470746884697
:109CE0001646C24607EB47011B4800EBC109D9F8ED
:109CF000140020B1012811D0022826D11EE04846C8
:109D000000F02AFA0546B54201D2002405E03446A7
:109D100032465146484600F066FA18E0484600F0E0
:109D20001BFA0546B54201D2284600E030460446FB
:109D300022465146484600F056FA08E0324651465F
:109D4000484600F017FA044601E0002400BF00BFB7
:109D50002046BDE8F0870000E838002010B508F084
:109D600049FC10BD10B506F019FE10BD73B584B0E6
:109D70000546002000900190029003900D488088D5
:109D8000ADF8000001208DF80200039505A80290AF
:109D90000849888B6946A6DF044600BF264626B1DF
:109DA00000BF304600F08AFD00BF00BF204606B06D
:109DB00070BD00004424002070B505460E461446D0
:109DC000FF2C00DD70BD1E4890F8090200EB8010EA
:109DD0001B4901EB8000A0F80241084690F80902F7
:109DE00000EB801001EB8000A0F8005191F80912FF
:109DF00001EB8111124A02EB810022463146FEF747
:109E0000EDFB0F4890F80A0202280FDA0C4890F890
:109E1000080208B9012000E00020094981F8090280
:109E2000084690F80A02401C81F80A02044890F89B
:109E30000A02012801D1FFF75FF800BFC2E7000066
:109E4000A42E002070B505460E46002404E0285DCF
:109E500000F03CFF601CC4B2B442F8DB70BD0000EF
:109E600001480249086070470090D003AC230020ED
:109E700010B503F0FBFB28B185480088C0F304202F
:109E80008449086003F052FC10B183488349486755
:109E900003F064FC30B17E48E0380068C0F3423023
:109EA0007F49086003F090FC28B17E48006820F0EC
:109EB00080707C49086003F09FFC48B100207A491B
:109EC00008604FF08041C1F810017549091F086012
:109ED00003F0C8FC18B1032071496431086003F035
:109EE000D9FC68B105207149086001206F497831BB
:109EF000086000206D49083108603F20091F086094
:109F000003F0E0FC002855D06148E0300068684963
:109F100008605F48E4300068091D08605C48E8306C
:109F20000068091D08605A48EC300068091D086087
:109F30005748F0300068091D08605548F430006843
:109F4000091D08605248F8300068594920310860FE
:109F50004F48FC300068091D086056480068091D1C
:109F600008605448001D0068091D08605148083009
:109F70000068091D08604F480C300068091D086022
:109F80004C48103000684A49403108604948143054
:109F90000068091D0860474818300068091D0860FE
:109FA00044481C300068091D0860424820300068A1
:109FB000091D086003F022FB10B1FB203E49086038
:109FC00003F02AFB30B13248CC38006800F04F0073
:109FD0003A49086003F074FB40B13948006800F06A
:109FE000010018B16FF0010035490860354800687C
:109FF00000F0004028B93348001D006800F0004020
:10A00000F0B301203049086000BF304800680028E4
:10A01000FBD015202B49086000BF2C4800680028A1
:10A02000FBD015212748001D016000BF27480068AC
:10A030000028FBD000202449086000BF23480068A6
:10A040000028FBD000BF00BF00BF00BF00BFBFF3B0
:10A050004F8F00BF00BF00BF1248F038006800F407
:10A06000E0601B490843001D0E49F039086000BF3D
:10A0700000BF00BFBFF34F8F00BF00BF00BF00E0B5
:10A0800002E000BF00BFFDE7FFF7EAFE10BD0000E1
:10A0900024030010403501400DF0ADBA00C0074068
:10A0A0003C050040FCED00E00C0100401056004073
:10A0B00020C500402404001018F50040E40E0040C4
:10A0C000000400400012001004E5014000E40140DB
:10A0D0000000FA0510B50249024808F049FE10BD1B
:10A0E000803100200020004010B5124C0220206179
:10A0F000606111A0A0611349E1614FF40071216218
:10A100000021A1626162E1620BA0A0640E49E164DA
:10A11000102121650021A1656165E1650BA1E01DAC
:10A12000FEF794FA0AA12046FEF790FA2020A071CB
:10A1300010BD0000D03800205465726D696E616CEE
:10A140000000000048390020483B002052545400D1
:10A15000534547474552000010B501460A69CB6890
:10A160009A4204D88C68641EE41AA01801E0D41A3C
:10A17000601E10BD2DE9F0470446894617464FF092
:10A18000000AE56800BFD4F81080A84503D9A8EB01
:10A190000500461E04E0A5EB0800401CA1680E1A4D
:10A1A000A068401BB04201D9304601E0A068401BC6
:10A1B0000646BE4201D2304600E038460646616897
:10A1C000481932464946FEF709FAB244B144BF1B6A
:10A1D0003544A068A84200D10025E560002FD2D107
:10A1E0005046BDE8F0872DE9F047044689461546FC
:10A1F000E668A068871BAF4208D9616888192A46BB
:10A200004946FEF7EBF97019E06010E0B846616866
:10A21000881942464946FEF7E1F9A5EB070809EB24
:10A22000070142466068FEF7D9F9C4F80C80BDE822
:10A23000F08700000FB4054B10B503A9044A02983B
:10A2400000F05AF810BC5DF814FB000019DB0100A7
:10A25000D422002002E008C8121F08C1002AFAD147
:10A2600070477047002001E001C1121F002AFBD196
:10A27000704700000146202908DA012088400A4A78
:10A28000104008B1012070470020FCE7402909DA9E
:10A29000A1F12000012202FA00F008B10120F2E74A
:10A2A0000020F0E70120EEE7FC06FFBD00BFEFF362
:10A2B0001081084672B670470146082901D3002074
:10A2C000704719B1012901D0042901D10020F7E715
:10A2D0000120F5E70146002006E000EB8002500077
:10A2E0000A78303A1044491C0A78302A02DB0A788E
:10A2F000392AF2DD704700002DE9FF4F8DB09B46F3
:10A300000F460446002606E025280BD05A460F9932
:10A310009047641C761C20780028F5D111B0304697
:10A32000BDE8F08F0025A8460122984900E00543CA
:10A3300014F8013F203B02FA03F00842F7D12078DD
:10A340002E2817D114F8010F45F004052A280ED045
:10A350006FF02F022078A0F1300109290AD808EB0C
:10A36000880102EB410100EB0108641CF2E757F899
:10A37000048B641C20786C280DD004DC4C2812D08F
:10A380006A2811D104E074280DD07A280CD10AE093
:10A3900045F4001507E0617845F48015814202D14B
:10A3A000641C05F58015641C2278692A45D008DCF8
:10A3B000002AB3D0582A69D0632A10D0642A08D161
:10A3C0003BE0702A67D0732A13D0752A5CD0782AB4
:10A3D0005CD010465A460F999047761CD3E017F888
:10A3E000040B8DF8000000208DF80100E9460120E3
:10A3F00003E057F8049B4FF0FF3069074FF000056A
:10A4000001D40AE06D1C45450DDA8542FADB19F8E6
:10A4100005100029F6D106E06D1C8542FCDB19F819
:10A4200005100029F8D12E4404E019F8010B5A4612
:10A430000F9990476D1EF8D2A5E00A200021CDE9C2
:10A440000801C5F3025002280DD001CFC117031E29
:10A4500071F100030DDA4FF0000CD0EB0C006CEB47
:10A4600001012D2308E0FF1D27F00707F7E802018F
:10A47000EDE72B0504D52B238DF8283001233BE095
:10A48000EB0739D02023F7E70A2000E01020002155
:10A49000CDE9080107E01020002145F00405CDE9D1
:10A4A00008014FF00808C5F3025002280FD001CF71
:10A4B00000214FF0000A2B071FD5702A0DD0DDE9CF
:10A4C00008C38CF0100C5CEA030C0CD015E0FF1DE7
:10A4D00027F00707F7E80201EBE740228DF8282074
:10A4E0004FF0010A0BE050EA010306D030238DF84B
:10A4F00028308DF8292002239A46582A04D024A215
:10A500000DF120090B9209E026A2F9E7DDE9082305
:10A51000FEF72EF80B9B9B5C09F8013D50EA010207
:10A52000F4D1ADEB090020300890680701D44FF05A
:10A5300001080899884502DDA8EB010000E0002031
:10A540008046002506E00AA85A46405D0F999047CC
:10A550006D1C761C5545F6DB04E030205A460F99F9
:10A560009047761CB8F10001A8F10108F5DC05E080
:10A5700019F8010B5A460F999047761C0899481E06
:10A5800008900029F4DC641CC5E6000009280100DD
:10A590003031323334353637383961626364656659
:10A5A000000000003031323334353637383941421B
:10A5B0004344454600000000014601F0030008B98D
:10A5C000012070470020FCE70246002104E0505CB7
:10A5D00008B101207047491C0629F8D30020F9E78B
:10A5E00010B50346D868884206D88818401E1C69F2
:10A5F000A04201D8012010BD0020FCE770B5044640
:10A600000D4604F12600FFF7DFFF0646012D06D0B8
:10A61000022D0AD0032D0ED0042D16D110E0A07902
:10A6200010B10EB1012070BD00BFE07910B10EB1C4
:10A630000220F8E700BF207A08B10320F3E700BF4B
:10A64000607A08B10420EEE700BF0020EBE7014686
:10A65000481C052290FBF2F302FB1300C0B27047C6
:10A660000146C87800F0040008B9072070470020B0
:10A67000FCE7000070B5B0B00546A02108A8FDF7C2
:10A68000C6FF1422254903A8FDF7A8FF0DF1170006
:10A6900003F061FC42F21120ADF800001120ADF88A
:10A6A000040003A9029100208DF8220006208DF8F5
:10A6B00023000120ADF8300019490D91CDF880D06C
:10A6C00002208DF8200001218DF89C10A0212A91F4
:10A6D00014488089202809DB1248808944F2C2117D
:10A6E000884203DC0F4881892A9100E02A950021E5
:10A6F0002B9108A90C4800F02AFD044600BF26460D
:10A7000026B100BF304600F0D9F800BF00BF0121DC
:10A71000054800F019FD30B070BD0000C4320200E1
:10A7200094210020282E00207824002010B5044613
:10A73000022001F0E7FB10BD10B5002407E0074937
:10A74000096811F83400012104F08AFC641C0448F3
:10A7500000788442F3D3002010BD0000882200203E
:10A760008C2200202DE9F84306460C461746052F9B
:10A7700002D20720BDE8F88304F070FD38B904F078
:10A780003DFD054600BF0DB12846F3E700BF164862
:10A7900006601648047016480760002015490860D6
:10A7A0001549086015E006EBC408144800680090DD
:10A7B00098F802008DF8010098F80000104A6946E8
:10A7C00004F0A4FC054600BF0DB12846D2E700BF47
:10A7D00000BF201EA4F10101CCB2E4D1094A00213E
:10A7E000094800F0ABF8C5E7882200208C22002041
:10A7F000902200209422002098220020203602007F
:10A80000A5DF010035CB01001C36020000BF05F0BA
:10A8100095FD00BF00BF05F04BFB0028FBD100BF3A
:10A8200000BF1C490988012242EA01401AA105F033
:10A830009FFC00BF1B48006800F0010000B100BE93
:10A8400000BF14490988022242EA014016A105F01E
:10A850008FFC00BF00BF00BF00BF00BFBFF34F8F22
:10A8600000BF00BF00BF0F48E438006800F4E0609C
:10A8700011490843001D0B49E439086000BF00BFBF
:10A8800000BFBFF34F8F00BF00BF00BF00BF00BFBE
:10A89000FDE7000014240020466174616C2065729D
:10A8A000726F7200F0ED00E053797374656D207281
:10A8B00065736574000000000000FA053EB50446AB
:10A8C000002000900190029002946A46002144F218
:10A8D0000100FFF79BFF3EBD70B504460D462046C4
:10A8E00003F07EF828B12946204603F06DF80020D9
:10A8F00070BD0520FCE7034609B90E20704712B170
:10A90000501E104008B10920F8E71960501E9880C9
:10A9100000209860D86000BFF0E770B504460D468F
:10A92000204603F05DF8A188884205D829462046D4
:10A9300003F069F8002070BD0420FCE710B5034661
:10A940000C4600BF0B48807808B9082010BD00BF36
:10A950000AB90720FAE70BB90720F7E71868007C67
:10A9600008B10820F2E71968002008744C744A61A5
:10A9700000BFEBE7BC31002010B506F0A7FF0020B8
:10A980000F49087048700B20887000200D4908603E
:10A990000D4908700D4908701420FFF71FF80721B2
:10A9A0001420FFF74BF81420FFF730F8002006F0D2
:10A9B00063FF06F05BFF06490860002010BD000041
:10A9C000BC3100209C220020AC220020AD220020BF
:10A9D000A02200202DE9F04104460E4617462546E8
:10A9E00000BF1048807810B90820BDE8F08100BF92
:10A9F0000CB90820F9E7052E01D20720F5E76869B0
:10AA000008B90820F1E7687C012801D1304600E050
:10AA1000002080463B4642463146284607F090FEDD
:10AA2000E3E70000BC31002070B50446254600BFB6
:10AA30000848807808B9082070BD00BF0CB168696B
:10AA400008B90820F8E7002028740221284607F0FA
:10AA5000A6FEF1E7BC3100202DE9F04104460F4885
:10AA6000077821460E48FFF737FF804697B1002050
:10AA70000A49087001220B490B4804F059FC0546AD
:10AA800000BF2E4626B100BF3046FFF717FF00BFBC
:10AA900000BF00BF4046BDE8F0810000BE2200209C
:10AAA000C8320020BD220020B022002010B504468C
:10AAB000012C11D13848007870B900203649C8708F
:10AAC0000846C178C078401C334AD070901D445469
:10AAD0000120114608703CE02F48807901280ED1F2
:10AAE0002D48007801280AD1FC2C08D12A48C178C9
:10AAF000C078401C284AD070901D445429E0264854
:10AB00008079012821D12448C079FC281DD1224810
:10AB10000078012819D12048C178C078401C1E4A0D
:10AB2000D070901D4454801FC078042804D1104672
:10AB300084800120114648701748407848B1164873
:10AB40008078401C1449887003E042211248FDF7C8
:10AB50005EFD1148807901281DD10F48C079FC287D
:10AB600019D10D480078012815D10B48407890B1D3
:10AB700009488078401E0849898888420BDB0120FB
:10AB8000064908700448C178801DFEF7A3FE4221E3
:10AB90000148FDF73CFD10BD5A27002098210020F8
:10ABA00010B504460D480068FFF73EFF0C48818849
:10ABB0008088401C0A4A908002F10A00445408F040
:10ABC000CBF807488088142806D1002004498880E3
:10ABD00014220A31FFF7F0F810BD00008C32020099
:10ABE000502500202DE9F04188B004460D46174657
:10ABF00098462E4807601DB9072008B0BDE8F081CF
:10AC0000A88882B22A482968FFF775FE064600BF69
:10AC10000EB13046F1E700BFA88982B22548A96885
:10AC2000FFF769FE064600BF0EB13046E5E700BFFC
:10AC3000202221496846FDF7D1FC60690690207CFE
:10AC400008B1012000E000208DF814008DF81C8070
:10AC5000607C08B10E2000E000208DF81500E0684F
:10AC60000290A06803902068019060680090134AE9
:10AC70006946134804F006FB064600BF0EB1304695
:10AC8000BBE700BF00200F4908702068401C58B186
:10AC90009DF81D0010B90A4804F08CFB01220A49F6
:10ACA000074804F045FBA8E70020A6E7B8220020EB
:10ACB000C8320020D832002024360200152B0200B2
:10ACC000B0220020BE220020BD22002070B5044624
:10ACD00021460B48FFF721FE054675B9094804F0E7
:10ACE00039FC50B908490648FFF7F6FD28B901229A
:10ACF0000549044804F0C8FB0546284670BD00001D
:10AD0000D8320020B0220020BC22002010B504461A
:10AD1000204606F0A1FF10BD70B5044625460E483A
:10AD20008068B0B1ADB9FFF7C1FA06460A480068BD
:10AD30000A490860084840684FF0E021C1F8040162
:10AD40000020054988601EB900BF62B600BF00BF81
:10AD500000BF00BF70BD0000E832002000E100E04D
:10AD6000F8B505460C4617462088001DB84201D9A3
:10AD70000C20F8BD684679DF064600BF0EB13046AC
:10AD8000F7E700BF0320218868542088401C2080FA
:10AD90001920218868542088401C2080208841196F
:10ADA000BDF8000008F07BF82188084420800020CE
:10ADB000DFE770B505460C462068401C28B12068C6
:10ADC00004F021FF206804F09DFE6068401C18B16B
:10ADD0000321606804F070FE2868A169C0F824159A
:10ADE00000BF617D227D286841EA0203C0F86C350E
:10ADF00000BFD4E90012286805F0BEFE207D0128BE
:10AE000014D1A068401C18B10021A06804F054FEC1
:10AE1000E068401C28B1E06804F0F5FEE06804F04A
:10AE200071FED4E90221286805F092FE70BD000091
:10AE3000F0B585B00546142214A16846FDF7CEFB97
:10AE4000174C302004F8010B782004F8010B284639
:10AE5000FDF7E8FBC7B2002610E02878694601EB51
:10AE60001010007804F8010B287800F00F001DF88E
:10AE7000000004F8010B6D1C701CC6B2BE42ECDB76
:10AE800000202070064805B0F0BD0000303132339C
:10AE900034353637383941424344454600000000D6
:10AEA000672E0020002112E00B48D0F81024012367
:10AEB00006E000BF107A884201D1002302E0526808
:10AEC000002AF6D100BF0BB108467047491C0A2979
:10AED000EADB4FF0FF30F8E7B034002070B586B001
:10AEE0000546142212A101A8FDF778FB154C30206D
:10AEF00004F8010B782004F8010BAD1D062610E0C4
:10AF0000681E0546007801A901EB1010007804F8CE
:10AF1000010B287800F00F00085C04F8010B701E8C
:10AF2000C6B2002EECDC00202070064806B070BDD2
:10AF3000303132333435363738394142434445466F
:10AF400000000000582E00202DE9FC4104468846F0
:10AF50001646002537880020308094F82D0058B11F
:10AF60003A463146404600F0B5FA054600BF15B1F5
:10AF70002846BDE8FC8100BFA07850B13A46314672
:10AF80004046FFF7EDFE054600BF0DB12846F0E74D
:10AF900000BFE07860B1E17848B23B4632464146B6
:10AFA00002F03AFD054600BF0DB12846E1E700BFBB
:10AFB000606868B1616891F900003B4632464146DD
:10AFC00007F014FD054600BF0DB12846D1E700BFCC
:10AFD000208900280EDD43460622022104F10800E4
:10AFE000CDE9006708F034F8054600BF0DB12846EA
:10AFF000BFE700BF208A00280EDD43460722032159
:10B0000004F11000CDE9006708F022F8054600BF02
:10B010000DB12846ADE700BF208B00280EDD43466A
:10B020001522142104F11800CDE9006708F010F88A
:10B03000054600BF0DB128469BE700BF206A58B106
:10B040003B4632464146206A01F0DFFC054600BF20
:10B050000DB128468DE700BF606A58B13B463246C5
:10B060004146606A03F0E0FB054600BF0DB128468B
:10B070007FE700BF94F82C0000280BDD3B463246EA
:10B080004146204606F081FF054600BF0DB1284627
:10B090006FE700BF207858B13B4632464146204614
:10B0A00003F072FC054600BF0DB1284661E700BF02
:10B0B00028465EE72DE9F04192B080460D461F20FC
:10B0C00011901090B8F1000F17D04046FFF7C8FA62
:10B0D000044600BF1CB1204612B0BDE8F08100BF9D
:10B0E00011AA08A94046FFF72FFF044600BF0CB184
:10B0F0002046F1E700BF08AE02E0002600201190D4
:10B10000ADB1284607F013F9044600BF0CB1204644
:10B11000E2E700BF10AA69462846FFF715FF04467C
:10B1200000BF0CB12046D7E700BF6F4602E0002702
:10B1300000201090BDF84000C3B2BDF84400C1B279
:10B140003A46304672DFC7E780F82410704770B582
:10B1500004460D4605B10CB90E2070BD01202070CB
:10B160000020E070202205F17801201DFDF736FA5D
:10B1700000208C3404F8680CD5F898002064D5F8C9
:10B180009C0060644FF6FF70A087673C0020206041
:10B19000A080A071253C3C2104F13000FDF737FA76
:10B1A000287884F83000A97832200155E9783320D6
:10B1B0000155697831200155D5E90412C4E910120E
:10B1C000D5E90212C4E90E12D5E90612C4E9121239
:10B1D00095F82D1084F85D10686AD0B104F16C0008
:10B1E000606504F178016167686A0188606D0180BB
:10B1F000686A8188606D8180002006E0696A8968DC
:10B200000A5C04F178010A54401C616D898881420E
:10B21000F4D8A86A10B304F1A401C4F8A01004F192
:10B220009800A0650C30A16D8860A86A8188A06D27
:10B230008180A86A0188A06D0180002006E0A96ACB
:10B2400089680A5C04F1A4010A54401CA16D898834
:10B250008142F4D895F82C1084F85C10286A50B11B
:10B2600004F1C4002065286A4188206D4180286A65
:10B270000188206D0180686808B16968616305F123
:10B280003C0104F13000FFF715FF0646304664E745
:10B2900070B504460D462E462088102804D011288B
:10B2A00007D01B280FD109E02146304605F0DCFC11
:10B2B0000AE02146304605F0A7FD05E0214630466C
:10B2C00005F022FF00E000BF00BF70BD2DE9F04196
:10B2D00005460E463446022D02D0032D14D100E05F
:10B2E00000BF607878B100206070E178204600F0FF
:10B2F0000FF8074637B1D4F8D00018B13846D4F863
:10B30000D010884700BF00E000BF00BFBDE8F0815B
:10B310007FB504460E46207810B9082004B070BDF1
:10B32000E67002F094FB18B1012060700020F5E790
:10B33000002044F8250FA080A071253CA07910B111
:10B34000E078012809D0E07910B1E078012804D034
:10B35000E07980B1E07802280DD1D4F8CC0038B182
:10B36000012084F82C000820D4F8CC10884702E093
:10B37000002084F82C0031462046FFF73FF9E070AA
:10B38000D4F8CC00A0B1E078032802D0E0780428FB
:10B390000ED1607960B194F8D40048B90020CC3463
:10B3A000A0720120607254F8CC190720884702E08F
:10B3B000002084F8D50000200090019002900390B6
:10B3C0008DF800008DF80800E07805281FD2DFE82E
:10B3D00000F01B03090F15006946204606F03CFEED
:10B3E000054615E06946204606F042FE05460FE098
:10B3F0006946204606F04AFE054609E069462046B1
:10B4000006F069FE054603E00020A07000E000BFE2
:10B4100000BFE07838B194F82410684673DF054621
:10B420000DB128467AE7D4F8CC0018B1A078D4F84A
:10B43000CC108847002071E72DE9F041044600BF99
:10B4400014B90E20BDE8F08100BF1C2221461C4823
:10B45000FDF7C4F81B481A490860206860B12068ED
:10B460007ADF05460DB12846ECE7164821680A68E0
:10B4700002604968416005E012487BDF05460DB176
:10B480002846DFE7002617E006EB86000E4901EBB1
:10B49000800700BF4FF6FF70388000BF0B4800EBFD
:10B4A000461078600A4A0021381DFFF747FA054622
:10B4B0000DB10320C6E7761C002EE5D00020C1E7C1
:10B4C000342D00209C210020202D0020002D002064
:10B4D000952F02002DE9FC4105460C4617462088B1
:10B4E0000930B84202D90C20BDE8FC8168466DDF06
:10B4F000064600BF0EB13046F6E700BF082021889F
:10B5000068542088401C20801B2021886854208893
:10B51000401C208020882844DDF801100160BDF81F
:10B52000051081802088801D20809DF80000400843
:10B5300018B900202188685402E00120218868544D
:10B540002088401C20800020CEE70000014600BF7C
:10B5500009B90E20704700BF014801600020F9E7DB
:10B560008422002010B54FF0FF3100203BDF04465D
:10B5700000BF0CB1204610BD00BFB12100203ADF52
:10B58000044600BF0CB12046F5E700BF04484169FE
:10B5900001208847022005F001F80020EBE70000B9
:10B5A000D030002010B50548006841690020884768
:10B5B000FFF7D8FF0446204610BD0000842200207B
:10B5C00010B590B004461C2109A8FDF720F8002012
:10B5D0000890142103A8FDF71AF80020029000BF7C
:10B5E0009DF8200020F00F00401C8DF820009DF8F1
:10B5F000200020F0F00010308DF8200000BF00BFC8
:10B600009DF8210020F00F00401C8DF821009DF8CE
:10B61000210020F0F00010308DF8210000BF9DF8CF
:10B62000220020F00600801C8DF822009DF82400E6
:10B6300020F0200020308DF824009DF8240020F018
:10B64000080008308DF8240000200A900C900D901E
:10B6500008A80E9000200F9020788DF80600032097
:10B66000ADF8040000BF9DF8080020F00F00401C5A
:10B670008DF808009DF8080020F0F00010308DF8DB
:10B68000080000BF00BF9DF8090020F00F00401C1B
:10B690008DF809009DF8090020F0F00010308DF8B9
:10B6A000090000BF9DF80A0020F00600801C8DF8FC
:10B6B0000A009DF80A0020F008008DF80A009DF8A5
:10B6C0000A0020F0100010308DF80A009DF80A00E2
:10B6D00020F00100401C8DF80A0001A8039002A888
:10B6E00004900020ADF81400ADF816001720ADF856
:10B6F0001800002007906088A31D03AA09A9A2DFF3
:10B7000010B010BD30B585B00546224B0FCB8DE88B
:10B710000F0000BF15B90E2005B030BD00BF4FF6B9
:10B72000FF701D49888028684861002048760876A7
:10B730000846FFF70BFF044600BF0CB12046EBE7BD
:10B7400000BF00BF01208DF812004FF65960ADF820
:10B75000100000BF104A921C04A90120A0DF04467B
:10B7600000BF0CB12046D7E700BF0B49684662DF37
:10B77000044600BF0CB12046CEE700BF0648FFF7E5
:10B780001FFF044600BF0CB12046C5E700BF0020E4
:10B79000C2E70000C4350200D030002070B5044676
:10B7A0000D4600BF04B970BD00BF2088502816D0D8
:10B7B00004DC102807D0112819D108E051280AD03C
:10B7C000532814D10FE0204605F048FA10E0204637
:10B7D00005F00CFB0CE0204605F074FC08E0204668
:10B7E00005F048FD04E0204605F014FC00E000BF31
:10B7F00000BF00BFD7E7000070B504460426207BD9
:10B80000012802D002281ED105E001F09FFE054666
:10B8100005B9012619E0607B142801DC607B08B9BA
:10B8200005260FE0627B04F10E010F48FCF7D6FEFF
:10B83000607B0D49091F8861084606F071FC0546CA
:10B8400005B9012601E0022600BF00BF012E0AD083
:10B85000207B314600F04CF8054625B103480068CE
:10B8600041690320884770BDFC30002084220020FD
:10B8700070B505460E4600BF1B48006820B11A4847
:10B88000406808B1012000E0002000B970BD00BF91
:10B89000154800F10801426828469047044600BF59
:10B8A000112C1FD07CB9002010490968887601212D
:10B8B000022000F01DF80446A4B10C48006841695C
:10B8C000032088470EE00020084909688876042193
:10B8D000022000F00DF8044624B1044800684169D4
:10B8E0000320884700BFD1E7EC30002084220020ED
:10B8F000F0B587B004460D46032700200190029062
:10B90000039004900320069020208DF814008DF8F9
:10B910001540E8B28DF816000D48C088ADF8040057
:10B9200002208DF806000020ADF8080006A803905C
:10B9300005A804900649888801A9A6DF064626B90D
:10B94000BDF81800032800D00C26304607B0F0BD23
:10B95000D030002030B1012805D0022804D00328BF
:10B9600007D102E006E005E004E000BF002100BFCF
:10B9700000E000BF00BF70477FB5044600BF012054
:10B980008DF80E0041F60A00ADF80C0000BF564AD3
:10B9900003A90120A0DF054615B1284604B070BDFB
:10B9A000208800280DDD51480090228804F13C03D6
:10B9B00042F62920616800F0D5FE05460DB1284603
:10B9C000ECE7208900280DDD49480090228904F128
:10B9D0003C0342F62420E16800F0C4FE05460DB1A8
:10B9E0002846DBE7208A00280DDD42480090228AA5
:10B9F00004F13C0342F62520616900F0B3FE0546E0
:10BA00000DB12846CAE7208B00280DDD3A4800908A
:10BA1000228B04F13C0342F62720E16900F0A2FEEC
:10BA200005460DB12846B9E7208C00280DDD3348C6
:10BA30000090228C04F13C0342F62620616A00F05B
:10BA400091FE05460DB12846A8E7208D00280DDDA2
:10BA50002B480090228D04F13C0342F62820E16A35
:10BA600000F080FE05460DB1284697E7206B90B1A7
:10BA700001A8216B06F018FD224804F13C030822BE
:10BA800001A9009042F6232000F06CFE05460DB19E
:10BA9000284683E700BF606B70B11B480090606B65
:10BAA000027904F13C03016842F62A2000F05AFEB4
:10BAB00005460DB1284671E7A06B90B101A8A16BB6
:10BAC00005F03AFC114804F13C03072201A900905B
:10BAD00042F6502000F046FE05460DB128465DE7CF
:10BAE00000BF00205AE70000382200203A22002040
:10BAF000422200204A220020522200205A22002006
:10BB0000622200206A220020722200207A22002075
:10BB1000F0B589B005460F46288821281BD008DCDF
:10BB2000012866D010280DD011280FD013286ED10F
:10BB300021E03B2841D051286BD052282CD05628E8
:10BB4000F5D148E0A8884D49088093E04FF6FF7092
:10BB50004A4908808EE000200890A88808A98FDF55
:10BB6000044600BF264626B100BF3046FEF7A6FEBB
:10BB700000BF00BF7EE000231A4685213F480088B1
:10BB80007FDF044600BF264626B100BF3046FEF7E1
:10BB900095FE00BF00BF6DE000231A4619463748E6
:10BBA0000088A9DF044600BF264626B100BF304604
:10BBB000FEF784FE00BF00BF5CE0A888132176DF9B
:10BBC000044600BF264626B100BF3046FEF776FE8B
:10BBD00000BF00BF4EE0A888132176DF044600BFF7
:10BBE000264626B100BF3046FEF768FE00BF00BF04
:10BBF00040E0A888002166DF044600BF264626B143
:10BC000000BF3046FEF75AFE00BF00BF32E030E012
:10BC1000FFE71022A91D05A8FCF7E0FC9DF8140021
:10BC200030B39DF81C00042807D09DF81C0006289E
:10BC300003D09DF81C0005281AD19DF81400022895
:10BC400002D18DF8040002E001208DF804004FF4C9
:10BC5000C170ADF80800A88801A9A8DF044600BF9C
:10BC6000264626B100BF3046FEF728FE00BF00BFC3
:10BC700000E000BF00BF09B0F0BD0000902100202F
:10BC800070B504460D462088102806D0112808D02B
:10BC900012280ED0502810D107E0204604F0A2FF51
:10BCA0000CE0204605F084F808E0204605F048FA4C
:10BCB00004E0204604F07EFF00E000BF00BF70BD3E
:10BCC00070B504460D462088102804D011280ED0E7
:10BCD0001A2830D10FE005F091FDA08805F05CFD39
:10BCE00020B900BF0420FEF7E9FD00BF23E0A088D3
:10BCF00005F0A6FD1FE0207A0121B1EB101F01DA4B
:10BD0000012000E000200346A2880C49A1F14C006C
:10BD100006F0BEF8207A0221B1EB101F01DA0120F3
:10BD200000E000200346A2880449091DA1F150004B
:10BD300006F0AEF800BF00BF70BD0000A02D0020CF
:10BD40000288102A02D0112A0CD105E0074A126895
:10BD5000521C064B1A6006E0044A1268521E034B3E
:10BD60001A6000E000BF00BF70470000A823002059
:10BD7000F8B504460E4600BF0CB90E20F8BD00BF52
:10BD800000BF0EB90E20F9E700BF4FF6FF70A08389
:10BD9000306820620020A077E07700BF01208DF896
:10BDA00002004FF61270ADF8000000BFA21C6946F9
:10BDB0000120A0DF054600BF0DB12846DEE700BF29
:10BDC0003146204605F0AEFD054600BF0DB12846C0
:10BDD000D4E700BF3146204606F06BFD054600BFA4
:10BDE0000DB12846CAE700BF3146204602F064F98B
:10BDF000054600BF0DB12846C0E700BF0020BDE7E3
:10BE000070B504460D4605B104B970BD2E462088B4
:10BE1000502820D004DC102807D0112828D109E0B0
:10BE2000532820D0572823D11AE02146304604F069
:10BE300011FF1EE02146304604F0D3FF0B2000BF67
:10BE40004FF0A0410A46012303FA00F1C2F80C1595
:10BE500000BF00BF0DE02146304605F09DF908E027
:10BE6000FDF74AF805E0F07F08B1FDF745F800E07E
:10BE700000BF00BF00BFC8E770B504460D462846A6
:10BE8000FCF7D0FB2080656070BD70B5044620468D
:10BE900006F0FFFF0546C5F3400070BD70B50446CF
:10BEA000204606F0F6FF054605F0010070BD38B5E6
:10BEB00004F03CFD044600BF254625B100BF2846DE
:10BEC000FEF7FCFC00BF00BF002000906946012087
:10BED00004F0A8FB044600BF254625B100BF284654
:10BEE000FEF7ECFC00BF00BF684604F057FC0446B8
:10BEF00000BF254625B100BF2846FEF7DFFC00BF86
:10BF000000BF38BD10B502460949885C00BF4FF03C
:10BF1000A0442146D1F80435012484409C43C1F853
:10BF20000845012484401C40C1F80C4500BF10BDE9
:10BF30009039020010B504460249085D012103F062
:10BF400078FE10BD9039020010B504460249085D24
:10BF5000002103F06EFE10BD9039020010B50146BD
:10BF6000094B585C00BF4FF0A044234600BFD3F8F4
:10BF70000445C44004F001040CB1012000E000209D
:10BF8000024682F0010010BD903902007CB5002409
:10BF90000CE00948055D002000900346012211468F
:10BFA0000190284603F074FD00BF641C042CF0D3FC
:10BFB00000F004F87CBD00009039020010B50024A8
:10BFC00003E02046FFF7B6FF641C042CF9D310BD34
:10BFD00010B5002403E02046FFF7B6FF641C042CD4
:10BFE000F9D310BD02464FF0FF30002106E0054BAB
:10BFF0005B5C934201D1084602E0491C0229F6D35A
:10C0000000BF7047943902002DE9F04106460F4603
:10C010004FF0000800243046FFF7E4FF0446022CEE
:10C020003ED20FB3012F02D0022F38D130E004EB03
:10C030004400214911F8008004EB44000844407892
:10C0400050B11E4A4FF400411D480068FEF7C2FC83
:10C0500005460DB91948067004EB4400164908441A
:10C060008078184908551AE015480068FEF7DCFC8E
:10C070001448005D04EB44010F4A1144897888425A
:10C0800005D104EB44001146084490F8028006E014
:10C0900004EB44000849084490F8018000BF00BF49
:10C0A000B8F1000F06D00848006818B140460649AC
:10C0B00009688847BDE8F0819C230020A223002066
:10C0C0006C390200A32300209823002070B5054698
:10C0D0000E2D04D00F2D09D0102D1CD10CE0012005
:10C0E0000E4908700C2003F078FD15E002200B4982
:10C0F000087007F05FF80FE003210948FFF708F91F
:10C10000044600BF264626B100BF3046FEF7D6FBE8
:10C1100000BF00BF00E000BF00BF70BD992100203C
:10C120007824002030B503460020022B23D2012AB8
:10C1300007D1012903D103F11104E4B200E0002486
:10C14000224679B1012902D0022911D104E003EB82
:10C1500043040A4D2A550DE003EB4304074D2C44DC
:10C16000627007E003EB4304044D2C44A27001E02D
:10C17000072000BF00E0072030BD00009C23002006
:10C180002DE9F04105460F4600241F4805601F4871
:10C19000076005F0020000B3002606E00122114608
:10C1A0003046FFF7BFFF0446761C022E01D2002C5A
:10C1B000F4D034B940F2666202211548FEF7D2FA93
:10C1C000044614B9FEF7B8FA04462CB9114A002106
:10C1D0001148FEF7B3FB044600BF05F0010008B1AB
:10C1E000FFF7D4FE2CB90D4A00210D48FEF7A6FB3F
:10C1F00004462CB90B4A01210B48FEF79FFB04466D
:10C200002046BDE8F0810000902300209823002004
:10C210007039020099C601006C390200B9E40100CE
:10C22000643902002DA70100683902002DE9F047AA
:10C23000044600260025D748007820B10020D549C3
:10C24000087002F025F9182C79D2DFE804F00C11FF
:10C25000124579ADF1FFEEEDECEBEAE9E8E7E6E552
:10C26000E4E3E2E1E0DF02F013F9CB4804708DE192
:10C2700000BF0020FFF772FE58B10020FFF75AFE02
:10C28000022C02D14FF4E16001E04FF47A600546E0
:10C2900009E00020FFF758FE022C01D1C82001E080
:10C2A0004FF4C8700546BC4804704FF40040A5FB2D
:10C2B00000204FF4FA73D71840F100015A00002310
:10C2C0003846FCF755F9814600224946B3480068D4
:10C2D000FEF780FB064659E10020FFF73FFE58B10C
:10C2E0000020FFF727FE032C02D14FF4487001E035
:10C2F0004FF47A60054609E00020FFF725FE032C85
:10C3000001D1C82001E04FF4C8700546A24804706E
:10C310004FF40040A5FB00204FF4FA73D71840F10A
:10C3200000015A0000233846FCF722F9814600221A
:10C3300049469A480068FEF74DFB064626E124E18F
:10C340000020FFF70BFE58B10020FFF7F3FD042C8F
:10C3500002D14FF47A6001E04FF47A6005460AE0BA
:10C360000020FFF7F1FD042C02D14FF4C87001E06A
:10C370004FF4C8700546884804704FF40040A5FB90
:10C3800000104FF4FA73CF1840F100015A00002357
:10C390003846FCF7EDF88146002249467F480068A0
:10C3A000FEF718FB0646F1E00020FFF7D7FD50B17D
:10C3B0000020FFF7BFFD052C01D1C82001E04FF49C
:10C3C0007A60054609E00020FFF7BEFD052C01D18B
:10C3D000C82001E04FF4C87005466F4804704FF460
:10C3E0000040A5FB00204FF4FA73D71840F100017C
:10C3F0005A0000233846FCF7BBF881460022494624
:10C4000066480068FEF7E6FA0646BFE0B8E0B6E028
:10C41000AAE0A1E098E092E05FE05DE05BE059E037
:10C4200057E051E042E033E024E015E00EE0FFE7A2
:10C430000020FFF767FD58480470002240F6CD4108
:10C4400056480068FEF7C6FA06469FE00020FFF750
:10C450007BFD5148047099E001204E490870FFF7B8
:10C4600051FD002240F6CD414C480068FEF7B2FA7B
:10C4700006468BE0012047490870FFF743FD002284
:10C480004FF4804145480068FEF7A4FA06467DE077
:10C49000012040490870FFF735FD002240F6CD41EC
:10C4A0003E480068FEF796FA06466FE001203949DB
:10C4B0000870FFF727FD00224FF4804137480068DD
:10C4C000FEF788FA064661E0FFF782FD3248047005
:10C4D0005CE000BF00BF00BF00BF31480068FEF74E
:10C4E000A3FA0646C4F1110515B30EBB012D18D9E8
:10C4F000A8B2C82148434FF4004180FB01304FF4FB
:10C50000FA729F1840F10001520000233846FCF7F0
:10C510002FF881460022494621480068FEF75AFA62
:10C5200006460220FFF710FD01201E49087005E0B5
:10C530000220FFF7FFFC00201A49087026E001F0F6
:10C54000A7FF1548047021E001F0A2FF0020FFF7CB
:10C55000FBFC1148047019E001F09AFF0120FFF77D
:10C56000F3FC0D48047011E001F092FF0020FFF78A
:10C57000EBFC0120FFF7E8FC0748047006E000BF71
:10C58000FFF726FD0448047000E000BF00BF3046FE
:10C59000BDE8F0878D2300208C2300206439020041
:10C5A00068390200942300202DE9F84F05460E4615
:10C5B000AF1C4FF002084FF00109002000906846C0
:10C5C000FEF7A4FB1B48006830601A480068194950
:10C5D0004968411A17488068401CA0EB010A07EB24
:10C5E000080B0BE002F03EF8124800681149496858
:10C5F000411A10488068401CA0EB010AD345F1D8CD
:10C600000C4800680B49896808400A490C3101EB65
:10C610008004206820F00300C01C206005480068EA
:10C6200038440C3908609DF80000FEF775FB484659
:10C63000BDE8F88FB034002070B504460D46A168FF
:10C64000481CA06020684554D4E90110884202D3F8
:10C65000204602F0A4FF70BD044840680349096801
:10C66000884201D1012070470020FCE7B03400204F
:10C6700070B508490220FFF783FD044600BF254638
:10C6800025B100BF2846FEF719F900BF00BF06F02C
:10C69000C8F970BDCDC0010010B504462078022154
:10C6A000FFF7B2FC10BD00004FF0FF31054A42F821
:10C6B0002010082804DBFF23A0F108015032535456
:10C6C00070470000283100200146024850F8210040
:10C6D00070470000283100202DE9F04F03460C463A
:10C6E0004FF0FF390AB1002000E0082084460AB16B
:10C6F000082000E00C208046614624E0154850F8F0
:10C700002100401CF0B91D460846274616464FFA40
:10C7100080FBDFF840A00AF1300A0AF805B0DFF824
:10C7200034A04AF820704EB94FFA85FBA0F1080AF0
:10C73000DFF820E00EF1500E0EF80AB000BF4FFAFD
:10C7400081F902E0491C4145D8D300BF4846BDE805
:10C75000F08F000028310020014601484056704704
:10C76000583100202DE9F0438FB007460D4614469E
:10C770001E46DDF8588000BF0DB1012000E000200A
:10C780008146B9F1000F04D100BF0020FEF796F8F2
:10C7900000BF00BF00BF002C01DD012000E0002031
:10C7A0008146B9F1000F04D100BF0020FEF786F8E2
:10C7B00000BF00BF1C2107A8FBF729FF9DF81C0044
:10C7C00020F00200801C8DF81C00002008900A90C8
:10C7D0000B900C900D9000BF01208DF83A00ADF841
:10C7E000387000BF0020019030788DF80400707818
:10C7F0008DF805009DF8060020F00600801C8DF8DD
:10C8000006009DF8060020F008008DF806009DF84F
:10C81000060020F010008DF806009DF8060020F0BC
:10C8200001008DF80600142102A8FBF7F0FE0EA807
:10C83000029001A80390ADF810400020ADF812005E
:10C84000ADF814400695434602AA07A9024800889D
:10C85000A2DF0FB0BDE8F083382200202DE9F041BF
:10C8600000272048007800F00F041E484778FF2F6B
:10C8700002D90020BDE8F0811B480078032803D0CE
:10C8800019480078042803D1022C01D90020F1E7CF
:10C8900054B93A4615491348801CFBF7CAFE08B93B
:10C8A0000120E7E70020E5E7012C01D10F2609E090
:10C8B000022C01D1552605E0032C01D1FF2601E011
:10C8C0000020D7E7002508E00649A81C085CB04214
:10C8D00001D00020CEE7681CC5B2BD42F4D30120D0
:10C8E000C8E70000583D002084230020643802007F
:10C8F00070B505460DB9094C01E0084C083409E053
:10C90000204601F0A8FD064606B904E028467168F5
:10C91000884700BFF4E700BF70BD00001C31002055
:10C920002DE9F04782461F480068002836D01D4890
:10C930000068056804F09AFF07461B480468214612
:10C94000384605F0F7FDC61C1848007808B904F011
:10C950009FFFAE4201D2284600E03046044424F056
:10C960007F44204604F07CFF04F080FF8046394677
:10C97000404605F0DFFD00F103093946204605F089
:10C98000D9FD814509D904F071FF814604F068FFA3
:10C990002F2002F047FA05F06FFF01E004F096FF48
:10C9A000BDE8F0879C220020A0220020AE220020BB
:10C9B00001460888062808DB0888B0F5486F06DDC0
:10C9C00008884FF6FF72904201D0072070474888D0
:10C9D000062808DB4888B0F5486F06DD48884FF622
:10C9E000FF72904201D00720F0E708884FF6FF72EF
:10C9F000904208D04888904205D008884A889042E2
:10CA000001DD0720E2E70020E0E72DE9F0410646DE
:10CA10000D46144698462088801D404502D90C20BA
:10CA2000BDE8F0813046FFF7C3FF074600BF0FB1F6
:10CA30003846F5E700BF0520218868542088401C4F
:10CA400020801220218868542088401C2080228861
:10CA50005119308806F023FA218808442080228862
:10CA60005119708806F01BFA2188084420800020A4
:10CA7000D6E710B5044600BF2046FDF71FFF00BFF4
:10CA800010BD000030B587B01C216846FBF7BFFD24
:10CA9000002000904FF4203001904FF4702002905D
:10CAA00003208DF80C000020ADF80E008DF810006A
:10CAB00009480590094806906846FEF7BDFC044603
:10CAC00000BF254625B100BF2846FDF7F7FE00BF91
:10CAD00000BF07B030BD0000890B020073CA01001F
:10CAE000F8B505460C46607A88B9207A10B9104826
:10CAF000476801E00E4887682A4639466068FDF7B6
:10CB000069FF064616B1304605F0E8F90EE0002050
:10CB100020720748406948B101208DF80000ADF847
:10CB20000250034841696846884700BFF8BD0000CD
:10CB3000342D00202DE9F0478146002532E01C48C5
:10CB4000006800EBC5042178012000FA01F61948BD
:10CB50000068304020B317480068B04315490860AA
:10CB6000207802F041FB07462178012088401249D5
:10CB700009680840217807FA01F188420FD16078EE
:10CB8000012800D100E00020784080F001086068B2
:10CB900020B108F0FF0120786268904700BF00BF15
:10CBA000681CC5B2054800788542C8DBBDE8F0873F
:10CBB0008822002098220020942200208C2200202D
:10CBC00038B50848006800906846FEF79BFD0446AB
:10CBD00000BF254625B100BF2846FDF76FFE00BF08
:10CBE00000BF38BDA832020030B5A1B014223F49C1
:10CBF00001A8FBF7F3FC00200690079006A86DDF64
:10CC00000546402110A8FBF702FD39A112A8FFF745
:10CC100033F93AA118A8FFF72FF93CA110A8FFF7A4
:10CC20002BF940A114A8FFF727F941A116A8FFF797
:10CC300023F940A11AA8FFF71FF99DF81C00010471
:10CC40009DF81D0041EA00209DF81E100843C11701
:10CC5000CDE90C019DF8190001049DF81A0041EA84
:10CC600000209DF81B1008430E9001208DF828002D
:10CC700040F20230ADF82A0040F20670ADF82E0006
:10CC800040F20450ADF82C0001A8FBF7CBFCC0B279
:10CC90008DF8240001A808900CA81C900AA81E90EA
:10CCA00008A81D9000BF9DF87C0020F00F00401CDC
:10CCB0008DF87C009DF87C0020F0F00010308DF89D
:10CCC0007C0000BF00BF9DF87D0020F00F018DF8B3
:10CCD0007D109DF87D0020F0F0018DF87D1000BFE3
:10CCE00010A8FEF749FE044621B030BD9432020080
:10CCF0004826542D425435323831300056312E30CA
:10CD00002E302D3138303131390000004845542D56
:10CD1000496E74656C6C6967656E742D436F6E74D3
:10CD2000726F6C00313233343536373839000000D9
:10CD30004826542D56312E302E3000002DE9F0417A
:10CD400006460D4614461F46B248007800F0C00063
:10CD500004F03F010843AF490860AF480760AF489F
:10CD60000560AF480078032803D0AD480078042858
:10CD700004D1032F02D1FF20A74908600120A9494F
:10CD800008700020A8490880A848007810B905203C
:10CD9000BDE8F081002E6FD100F0C6FA7DB924B154
:10CDA0000120A14908800420F2E700209949086089
:10CDB00003209B49087000209D49087077E0012DF1
:10CDC0000AD1032C04D90120974908800420DFE709
:10CDD000A001904908606AE0022D29D1012C06D0FB
:10CDE000022C0DD0032C14D0042C1CD116E00320EF
:10CDF0008B49087000208E49087004F0BFFBC7E71C
:10CE000004208749087001208949087004F0B6FBA6
:10CE1000BEE70120844908800420B9E70120824947
:10CE200008800420B4E701207F4908800420AFE790
:10CE3000032D06D1012C3AD901207B49088004201A
:10CE4000A6E7042D09D124B10120774908800420E8
:10CE50009EE706207449088029E0052D22D134B1CF
:10CE6000012C0AD0022C0DD0032C15D10FE04FF469
:10CE7000FF706D49088014E01BE044F290206A497D
:10CE800008800EE04FF4FF706749088009E044F223
:10CE900090206549088004E001206349088004204F
:10CEA00076E704E0012060490880042070E7002054
:10CEB0006EE7032E11D15D480078012803D15A494D
:10CEC0000880022064E75B48008840F4004056492F
:10CED000088000F029FA00205AE754480078012819
:10CEE00004D0012050490880022051E7032F07D0C9
:10CEF0004A480068272803D901204B49088047E7A2
:10CF000000204C490880012E0CD140F201114A4802
:10CF1000FBF77DFB012004F0BDFB042043490870B2
:10CF2000002035E7022E73D13B480068FF2808D067
:10CF300038480068FF2804D901203B4908800320B5
:10CF400026E7344800783C49487033480068022896
:10CF50001FD003DC38B1012836D10FE0032823D0DD
:10CF6000FF2831D12BE0002033490870294833498C
:10CF700002683148801CFBF731FB2AE001202E4972
:10CF800008700F22234801682B48801CFBF738FBF0
:10CF90001FE002202849087055221E4801682648D3
:10CFA000801CFBF72DFB14E0042023490870FF22AE
:10CFB000184801682048801CFBF722FB09E029463D
:10CFC000204600F0F9F9E3E6012017490880042023
:10CFD000DEE600BF002004F05DFB114801780D483B
:10CFE000006800F036F916490968C1F84005144890
:10CFF000006800F5A0701349086013491148001D2E
:10D00000016001200F490C390860022007490870AF
:10D010000020BDE6482300204C23002050230020A0
:10D0200084230020462300204423002040230020A6
:10D030006423002042230020583D00206438020071
:10D040005C23002010F50140001000402DE9F04164
:10D050000446A60BC4F30527C4F3850804F00305B2
:10D06000032D00D100BF2B46424639463046FFF71C
:10D0700065FEBDE8F08100004FF4007001490860D2
:10D0800070470000501600400146044A1078002204
:10D09000024B1A70024A12880A6070474623002029
:10D0A00044230020034622B90B481860082008706A
:10D0B0000FE0012A04D1094818600920087008E02F
:10D0C000022A04D1064818600A20087001E00020F6
:10D0D00070470120FCE70000008000400090004005
:10D0E00000A0004010B505F031FA10B904F046FA7E
:10D0F00008B1042010BD002007490870012007492D
:10D1000008700020064908600648006840F01000DA
:10D11000044908600020EDE746230020402300205A
:10D120004823002010ED00E01CB54FF00008C14678
:10D130000027FFF7D7FF064600BF354625B100BFE1
:10D140002846FDF7BBFB00BF00BF00BF00F06EF933
:10D15000044601A8FDF780FC00B1F7E7B9F1000F24
:10D1600006D14FF001099DF804000702A046EDE743
:10D1700008F11500844204D99DF804000702A04676
:10D18000E4E74FF000099DF8040007433846FFF735
:10D190005DFF6846FFF778FF70B100BF0098C0F3ED
:10D1A0000720FDF793FD0028F8D100BF0099C8B211
:10D1B000FDF78CFD0028F9D10C480078A0B10020C3
:10D1C0000A490870022505E00949485DFDF77EFD22
:10D1D000681CC5B2062DF7DB05490878FDF776FD1A
:10D1E00003494878FDF772FDB0E7000037230020BF
:10D1F0003823002070B50321142002F06AFC1420AB
:10D2000002F0DFFC20BB0A2002F088FC0A2002F0BA
:10D2100005FD0024142608E0FCF744FC05466006E2
:10D22000040E2C43FF2C00D104E0301EA6F10101B6
:10D23000CEB2F1D100BFFF2C03D10A2002F09EFC38
:10D2400002E00A2002F0EAFC00F088F8FFF76CFF29
:10D2500070BDF0B50446002300BF0026042901D1AB
:10D26000582602E0032900D15026E3003344042964
:10D2700000D15B08002200BF00BF521C40F27127A2
:10D2800002FB07F503F1F907AF42F6D840F2712728
:10D2900002FB07F0F0BD02468AB1042A0FD0D82A5B
:10D2A0000DD0EC2A0BD0F02A09D0F42A07D0F82AA6
:10D2B00005D0FC2A03D0032A01D0D82A03D10329A0
:10D2C00003D0042901D0042070470020FCE70000AF
:10D2D00010B5044605480078012801DD002010BD86
:10D2E000224603490348FFF7DDFEF8E7402300200C
:10D2F000602300205C230020024651B201F0300080
:10D3000010B141F0C00000E0084641B20448007886
:10D31000012801DD00207047024801600120FAE782
:10D32000402300205823002010B500F015F80120FC
:10D3300007490860002006490831086000210448B8
:10D340000C30016004F0E4F901200249087010BDBE
:10D3500008F50140402300207047000030B58BB035
:10D360001822114905A8FBF739F900BF0F480190B1
:10D370004FF4807002900E4803904FF48070049038
:10D3800007230C4A01A905A8FDF72CFC044600BFA1
:10D3900000BF254625B100BF2846FDF78FFA00BF24
:10D3A00000BF0BB030BD00004C380200583B0020DD
:10D3B000583C0020832A020070B504460D4634B163
:10D3C000012C05D0022C11D0032C23D118E000BF72
:10D3D000002004F05FF9FFF74FFE01200F490860BD
:10D3E0000F49086003200F49087013E02846FFF733
:10D3F00083FF20B901200C490880042070BD09E09A
:10D400002846FFF765FF20B901200749088004205E
:10D41000F4E700BF00BF0020F0E70000001200406A
:10D4200000100040402300204423002010B5244871
:10D43000006840F010002249086000BF21480068E1
:10D44000E8B100201F4908600120FCF7D3FA1E480C
:10D450000078042813D101201C4948601C4800684A
:10D46000012807D1FFF7FAF920B11A480088401CBB
:10D470001849088040F201111748FBF7C8F817480F
:10D480000068D0F8400128B1002014490968C1F8AB
:10D490004001D3E711480068D0F844010028CDD0FE
:10D4A00000210E480068C0F844110D4890F90000B2
:10D4B000FCF7A0FA0B480068401C0A49086010BD40
:10D4C00010ED00E00C11004040230020001000404F
:10D4D0000014004042230020583D00205C2300201F
:10D4E0006023002054230020014614480078144A89
:10D4F000127890421DD011480078401C0F4A1070DD
:10D5000010460078022801D1002010700D480B4A07
:10D51000127850F8220008600B4A0868126810441C
:10D52000094A10601046006820F07F40106001201A
:10D5300070470020086000BFFAE70000AC2200201E
:10D54000AD220020A4220020A022002010B5104807
:10D550000068807E60B106210120FEF7C9F904460B
:10D5600024B10B480068416903208847002010BDA2
:10D57000012007490968487601210846FEF7B8F9F5
:10D5800004461CB100200249096848762046EEE7AF
:10D59000842200202DE9F84305460E46174698469A
:10D5A00069461048006801F06FFA044614B9042077
:10D5B000BDE8F8831C212046FBF729F801202071E3
:10D5C0002560C4F8088008480068B6FBF0F0E06009
:10D5D000676169460348006801F080FA03F0B8FF0C
:10D5E0000020E5E7603602005436020010B504461C
:10D5F000D4E90321501828DF10BD00000548006859
:10D600000A2805D10348001D006808B901207047A9
:10D610000120FCE73001001013480078062820D1D3
:10D620001148001D007800F00F00D0B90E480830F6
:10D63000007800F0F000302801D1012070470A483E
:10D640000830007800F0F000402801D10120F5E713
:10D6500005480830007800F0F000502801D1012082
:10D66000ECE70020EAE70000E00F00F01348007844
:10D67000062820D11148001D007800F00F00D0B915
:10D680000E480830007800F0F000302801D1012069
:10D6900070470A480830007800F0F000402801D1B7
:10D6A0000120F5E705480830007800F0F000502828
:10D6B00001D10120ECE70020EAE70000E00F00F0D4
:10D6C000184800680A2805D11648001D006808B9E6
:10D6D0000120704714480078062820D11248001D08
:10D6E000007800F00F00D0B90F480830007800F043
:10D6F000F000302801D10120EBE70B48083000781A
:10D7000000F0F000402801D10120E2E7064808308F
:10D71000007800F0F000502801D10120D9E7012065
:10D72000D7E7000030010010E00F00F00A48007851
:10D7300006280ED10848001D007800F00F0040B9FF
:10D7400005480830007800F0F000302801D10120B1
:10D7500070470020FCE70000E00F00F01848006868
:10D760000A2805D11648001D006808B90120704735
:10D7700014480078062820D11248001D007800F0D7
:10D780000F00D0B90F480830007800F0F0003028C2
:10D7900001D10120EBE70B480830007800F0F000E1
:10D7A000402801D10120E2E706480830007800F067
:10D7B000F000502801D10120D9E70120D7E700006F
:10D7C00030010010E00F00F00A48007806280ED162
:10D7D0000848001D007800F00F0040B905480830E7
:10D7E000007800F0F000302801D1012070470020BF
:10D7F000FCE70000E00F00F0184800680A2805D197
:10D800001648001D006808B90120704714480078C8
:10D81000062820D11248001D007800F00F00D0B972
:10D820000F480830007800F0F000302801D10120C6
:10D83000EBE70B480830007800F0F000402801D1F9
:10D840000120E2E706480830007800F0F000502898
:10D8500001D10120D9E70120D7E7000030010010F5
:10D86000E00F00F00A48007806280ED10848001D95
:10D87000007800F00F0040B905480830007800F04B
:10D88000F000302801D1012070470020FCE70000A3
:10D89000E00F00F00A48007806280ED10848001D65
:10D8A000007800F00F0040B905480830007800F01B
:10D8B000F000302801D1012070470020FCE7000073
:10D8C000E00F00F00F4800680A2805D10D48001D40
:10D8D000006808B9012070470B48007806280ED16F
:10D8E0000948001D007800F00F0040B906480830D4
:10D8F000007800F0F000502801D10120EBE7012072
:10D90000E9E7000030010010E00F00F030B585B00D
:10D9100004460D462068806808B905B030BD142162
:10D920006846FAF774FE0195A0680490207910B15A
:10D93000012813D107E001208DF800002069029032
:10D94000606903900BE002208DF800000749E06851
:10D950000968484302906069039000E000BF00BF7F
:10D96000206881686846884700BFD6E754360200C1
:10D97000F0B5034600241FE0124E306806689E4250
:10D9800003D90668F61A06601AE006689B1B06684B
:10D990003444002606600B4E35680A4FC6693E6067
:10D9A000C66846B10E1926F07F464660C668866096
:10D9B0001668C661156000BF024800680028DBD108
:10D9C00000BFF0BD9C22002070B504460D462A46DB
:10D9D0000021204600F00EF8A068401CA06070BD39
:10D9E00001468A68C868801A704701468A68C86814
:10D9F000801A704710B583680B44848823400468FC
:10DA0000E35C137010BDC26883881A4003689954A0
:10DA1000C268521CC260704730B504461088C01CF2
:10DA2000984201D90C2030BD022015884855108835
:10DA3000401C10800120158848551088401C10801B
:10DA400015884C551088401C10800020EBE710B55D
:10DA5000002001F0E3FE10BD10B5002301224FF4B9
:10DA60001C31024801F0A1FE044610BDB82300207D
:10DA700010B500220649074801F0C1FE30210648D2
:10DA8000FAF7C5FD3021044800F028F810BD000069
:10DA900064360200B8230020282E002010B504466A
:10DAA0000948007802280ED100200749087030216B
:10DAB000064800F021F8064805F05FFB0020054904
:10DAC00008700549087010BDA4210020282E0020F0
:10DAD000B8230020A52100209821002070B504461D
